:020000040800F2
:100000008005002045010008F31600083913000898
:10001000F116000853020008211C0008000000002F
:100020000000000000000000000000005B18000855
:10003000DD02000800000000151700085D18000828
:100040005F0100085F0100085F0100085F01000810
:100050005F0100085F0100085F0100085F01000800
:100060005F0100085F0100085F0100085F010008F0
:100070005F0100085F0100085F0100085F010008E0
:100080005F0100085F0100085F0100085F010008D0
:100090005F0100085F0100085F0100085F010008C0
:1000A0005F0100085F0100085F0100085F010008B0
:1000B0005F0100085F0100085F0100085F010008A0
:1000C0005F0100085F0100085F0100085F01000890
:1000D0005F010008091C0008151C00085F010008EA
:1000E0005F0100085F0100085F0100085F01000870
:1000F0005F0100085F0100085F0100085F01000860
:100100005F0100085F0100085F0100085F0100084F
:100110005F0100085F0100085F0100085F0100083F
:100120005F0100085F0100085F0100085F0100082F
:10013000DFF80CD000F06CF800480047E120000820
:10014000800500200648804706480047FEE7FEE796
:10015000FEE7FEE7FEE7FEE7FEE7FEE7FEE7FEE777
:10016000C518000831010008202A04DB203A21FAD2
:1001700002F00021704721FA02F3D040C2F12002C0
:100180009140084319467047D2B201E000F8012BB4
:10019000491EFBD270470022F6E710B513460A4607
:1001A00004461946FFF7F0FF204610BD2DE9F05F29
:1001B0000546002092469B468846064681464024D6
:1001C0001BE02846414647462246FFF7CDFF5346EF
:1001D0005A46C01A914110D311461846224600F0E3
:1001E00029F82D1A67EB01084F462246012000210D
:1001F00000F020F817EB00094E41201EA4F1010485
:10020000DFDC484631462A464346BDE8F09F000001
:10021000064C074D06E0E06840F0010394E8070053
:1002200098471034AC42F6D3FFF786FFCC21000884
:10023000EC210008202A04DB203A00FA02F1002019
:1002400070479140C2F1200320FA03F31943904014
:100250007047FEE71CB5124CC9B2124AA37801F0F0
:1002600089FF01281BD10020608080210D48FFF705
:1002700092FF04F1080001F0BDF820B1BDE81C4078
:1002800009A001F0CFBC064808300279C178CDE959
:10029000001283784278017808A001F0C3FC1CBDED
:1002A00000000020FC0000204361726449443D309E
:1002B0003030303030303030300D0A0043617264FD
:1002C00049443D2530327825303278253032782542
:1002D000303278253032780D0A0000007047000077
:1002E0002DE9F05F90F821100024022903D00421A9
:1002F0008163012485E001680A6822F00E020A6029
:1003000001680A6822F001020A603F4E3E4FB215B2
:10031000DFF8F4C0DFF8F090DFF8ECA0DFF8E8B029
:10032000DFF8E4E00168783F13011502ACF1640CDA
:10033000A9F15009AAF13C0AABF1280BAEF1140E59
:100340004FF48018B14227D9B9420ED0614512D07E
:1003500049451DD0514518D0594518D0714501D196
:10036000424615E0294EB14201D1012210E0274E4C
:100370001436B14201D110220AE0244E2836B1428F
:1003800006D0224A3C32914201D11A4600E02A4668
:100390001E49091F0A602BE0B94213D0614517D0EE
:1003A000494522D051451DD059451DD0714501D137
:1003B00042461AE0B14202D14FF0807215E0134E6E
:1003C000B14201D1012210E0104E1436B14201D1E8
:1003D00010220AE00D4E2836B14206D00B4A3C32BC
:1003E000914201D11A4600E02A46074980394A6005
:1003F000012180F82110002180F82010416B01B10B
:1004000088472046BDE8F09F800002400804024073
:1004100070B5044600F008F90546601C02D0044897
:100420000078044400F000F9401BA042FAD370BDEC
:10043000100000202DE9F84FDFF8B8A100220AF1E2
:10044000040B144601274FF00F090BF1040E00BFF7
:100450000B6807FA04F52B40AB4274D1DFF898C162
:100460004E68A6EB0C0866452BD00DDC032E34D06D
:1004700005DC36B3012E19D0022E2FD11BE0112E30
:1004800016D0122E2AD119E0B8F5881F19D006DC33
:10049000B8F5803F15D0B8F5801F1FD111E0B8F531
:1004A000001F0ED0B8F5041F18D10AE0CA6815E085
:1004B000CA68121D12E0CA6808320FE0CA680C321E
:1004C0000CE08A682AB1012A4FF0080203D0456186
:1004D00004E0042202E0056100E00022FF2B01D8C5
:1004E000064601E000F104064FEA840501D9A5F1B2
:1004F0002005D6F800C009FA05F82CEA080C02FA23
:1005000005F54CEA050CC6F800C04D68ED006AD54B
:100510003A4DAE6946F00106AE61AD6924F00306BE
:1005200005F001050095364D06EB050CDCF808508A
:10053000A6074FEA167809FA08F6B543314EB042DD
:1005400002D100261AE04EE02F4EB04201D1012622
:1005500014E02E4EB04201D102260FE02C4EB042E4
:1005600001D103260AE02B4EB04201D1042605E05A
:10057000294EB04201D1052600E0062606FA08F60B
:100580002E43CCF808604D68DAF80060ED0355465C
:1005900001D51E4300E09E432E604D68AD0305D596
:1005A000DBF800601E43CBF8006004E0DBF800508D
:1005B0009D43CBF800504D68DEF80060ED027546B3
:1005C00001D51E4300E09E432E604D68AD0205D567
:1005D000084D0C352E681E432E6004E0054E0C3687
:1005E00035689D433560641C102CFFF431AFBDE8C5
:1005F000F88F0000000401400000111000100240BC
:100600000000014000080140000C014000100140C2
:100610000014014000180140001C01400AB10161B2
:1006200070470904FBE7000001488068704700003C
:1006300010000020024881680278114481607047F0
:1006400010000020074810B5016841F0100101605A
:10065000032000F09BF8002000F006F800F024F8DA
:10066000002010BD0020024070B50D4D04464FF42F
:100670007A712878B1FBF0F00A490968B1FBF0F013
:1006800000F087FC48B9102C07D200222146501EEA
:1006900000F05CF800206C6070BD012070BD0000AF
:1006A000100000201C000020204808B5816941F09E
:1006B00001018161816901F001010091C16941F08D
:1006C0008051C161C06900F080500090032000F0AB
:1006D0005DF8002211466FF00B0000F037F80022A1
:1006E00011466FF00A0000F031F8002211466FF059
:1006F000090000F02BF800221146501F00F026F8E8
:1007000000221146101F00F021F800221146901E11
:1007100000F01CF800221146501E00F017F80448A3
:10072000416821F0E061416008BD00000010024016
:100730000000014000F01F020121914040098000AB
:1007400000F1E020C0F8001170470000F0B40E4B3B
:100750001B680C46C3F30223C3F10705042D00D91F
:100760000425191D072901D2002300E0DB1E012604
:1007700006FA05F1491E214099409E40761E16401A
:100780003143F0BC00F0B6BF0CED00E0064900F0CC
:10079000070208684FF6FF03184040EA0220034AA8
:1007A00010430860704700000CED00E00000FA05FF
:1007B0002DE9F047DFF83C8105460E46D8F80000E9
:1007C00000F00700B0420CD2D8F8001021F0070169
:1007D0003143C8F80010D8F8000000F00700B0421C
:1007E00063D12878444C800705D56068A96820F05B
:1007F000F000084360602878C00745D06868012889
:1008000016D02168022816D0890700294DDA6168C0
:1008100021F0030101436160FFF706FF69680746A5
:1008200041F2883001290FD00229814619D027E0F2
:1008300021688903E9E78901E7E700BFFFF7F4FED4
:10084000C11B494501D918E081466068C0F38100A9
:100850000128F3D118E000BFFFF7E6FEC11B4945B0
:100860000BD86068C0F381000228F5D10CE000BF0E
:10087000FFF7DAFEC11B494502D90320BDE8F08726
:10088000606810F00C0FF3D1D8F80010404601F06A
:100890000701B1420BD9016821F007013143016022
:1008A000006800F00700B04201D00120E6E7287898
:1008B000400705D56068E96820F4E060084360609F
:1008C0002878000706D56068296920F4605040EA5E
:1008D000C100606000F03CF86168084AC1F3031190
:1008E000515CC840064908600020FFF7BDFE0020AB
:1008F000C4E700000020024000100240B2210008BE
:100900001C00002001480068704700001C00002007
:100910000448054900684968044AC1F30221515C52
:10092000C84070471C00002000100240C22100088F
:100930000448054900684968044AC1F3C221515C72
:10094000C84070471C00002000100240C22100086F
:1009500012A185B00FC98DE80F0014A0144A0068D9
:1009600004905168134801F00C03042B10D0082B9D
:100970000ED1C1F38343C9031DF803000AD55168A2
:1009800004AAC1F34041515C0A4A5043B0FBF1F064
:1009900005B0704708494843FAE700000203040520
:1009A000060708090A0B0C0D0E0F101001020000BB
:1009B0000010024000127A0000093D002DE9F84FB6
:1009C00004460078B94DC00748D06868C0F381007C
:1009D000012807D06868C0F38100022809D168683F
:1009E000C00306D52868800338D5606800286FD01A
:1009F00034E06068B0F5803F0BD010B1B0F5A02FA7
:100A000011D0286820F480302860286820F48020E5
:100A100002E0286840F480302860606888B1FFF701
:100A200003FE064609E0286840F480202860F0E7CD
:100A3000FFF7FAFD801B642875D828688003F7D576
:100A40000CE0FFF7F1FD064605E000BFFFF7ECFD07
:100A5000801B6428F0D828688003F7D42078944E4F
:100A600080074FF001094FF000083BD5686810F08F
:100A70000C0F07D06868C0F38100022809D16868AC
:100A8000C00306D42868800714D5206901281FD127
:100A900010E02069B0B1C6F80090FFF7C5FD074629
:100AA00005E000BFFFF7C0FDC01B0228C4D82868BE
:100AB0008007F7D52868616920F0F80040EAC10096
:100AC00028600FE0C6F80080FFF7AEFD074606E09D
:100AD000E9E000BFFFF7A8FDC01B022823D8286863
:100AE0008007F7D4207800072CD57248A169D9B1C6
:100AF000C0F80090FFF798FD074604E0FFF794FD6B
:100B0000C01B02280FD8686A8007F7D56A484FF4DF
:100B1000FA510068B0FBF1F0009000BF0098411E50
:100B20000091FAD20EE080E0C0F80080FFF77CFD73
:100B3000074604E0FFF778FDC01B022875D8686AF5
:100B40008007F7D42078400760D5E8690027C00007
:100B500008D4E86940F08050E861E869012700F0B6
:100B60008050009055480168C90513D40168834638
:100B700041F480710160FFF757FD824606E000BF37
:100B8000FFF752FDA0EB0A0064284ED8DBF8000006
:100B9000C005F5D5E06801280AD008B1052813D0B2
:100BA000286A20F001002862286A20F0040002E090
:100BB000286A40F001002862E06841F2883B98B161
:100BC000FFF732FD82460BE0286A40F004002862FD
:100BD000EEE700BFFFF728FDA0EB0A0159455AD800
:100BE000286A8007F6D50CE0FFF71EFD824605E077
:100BF000FFF71AFDA0EB0A0159454CD8286A800777
:100C0000F6D41FB1E86920F08050E861E06988B34C
:100C10006968C1F38101022945D00228C6F86080C5
:100C200004D0FFF701FD044638E034E0FFF7FCFC98
:100C3000074604E0FFF7F8FCC01B02282BD8286801
:100C40008001F7D4206AB0F5803F05D16868A168BB
:100C500020F4003008436860D4E90801084369685B
:100C600021F4741108436860C6F86090FFF7DCFC5B
:100C7000044606E015E000BFFFF7D6FC001B022883
:100C800009D828688001F7D50BE000BFFFF7CCFC3E
:100C9000001B022802D90320BDE8F88F28688001D4
:100CA000F4D40020F8E70120F6E70000001002402D
:100CB00000004242800442421C00002000700040BC
:100CC00070B5040005D00025A56294F8510010B15C
:100CD00004E0012070BD204600F034F8022084F8C2
:100CE00051002068016821F040010160D4E9010150
:100CF0000843D4E903121143084361690843218B77
:100D000001F400710843E1690843216A0843A16ABC
:100D1000084321680860A069042101EA1040616A63
:100D20000843216848602168E06A08612068C16959
:100D300021F40061C1616565012084F85100002043
:100D400070BD000010B50068124986B088421ED1FF
:100D50001148C16941F48041C161C0690F4C00F480
:100D6000804004904FF42040009002200190032026
:100D7000039069462046FFF75DFB00214FF4804059
:100D8000CDE90001029169462046FFF753FB06B00A
:100D900010BD00000038004000100240000C01406F
:100DA0002DE9F84F044690F8500000260A9F9A4615
:100DB00093460D464FF0010801280ED0012084F81B
:100DC0005000FFF731FC814694F85100616801281A
:100DD0000CD0B1F5827F07D102E00220BDE8F88F88
:100DE000A16809B9042801D00226BDE055B1BBF1C4
:100DF000000F07D0BAF1000F04D094F85100012879
:100E000002D004E00126AFE0052084F85100002064
:100E10006065C4F838B0A4F83EA0A4F83CA02563EF
:100E2000A4F836A0A4F834A02064606420680168A7
:100E3000490603D4016841F040010160E068B0F563
:100E4000006F606804D0E8B3E08E01283BD06AE010
:100E500010B1E08E01282ED1216835F8020BC86050
:100E6000E08E401EE08626E0B8F1000F0DD0E08E47
:100E700058B120688168890707D535F8021BC16021
:100E8000E08E401EE0864FF00008E08F58B12068E9
:100E90008168C90707D0C0682BF8020BE08F401E9D
:100EA000E0874FF00108781C05D0FFF7BDFBA0EBF1
:100EB0000900B84246D2E08E0028D5D1E08F002844
:100EC000D2D136E0FFE7216815F8010B0873E08EF8
:100ED000401EE08627E000BFB8F1000F0DD0E08E85
:100EE00058B120688168890707D515F8011B01737F
:100EF000E08E401EE0864FF00008E08F58B1206879
:100F00008168C90707D0C0680BF8010BE08F401E4D
:100F1000E0874FF00108781C05D0FFF785FBA0EBB8
:100F20000900B8420ED2E08E0028D5D1E08F00280B
:100F3000D2D13B46012202212046CDF8009000F09C
:100F400041FC08B103260FE04A463946204600F02E
:100F500029FC18B101262020606505E0A06818B9B9
:100F60002068C16880680090012084F8510000204A
:100F700084F85000304631E74FF0E021042808693A
:100F800003D020F004000861704740F00400FAE745
:100F9000704710B5401EB0F1807F01D3012010BD15
:100FA0004FF0E02460610F21601700F0A3FB0020E8
:100FB000A06107202061002010BD10B5FFF7E8FFF9
:100FC00010BD704770B5026804461068D168536957
:100FD00010F00F0F50D003F0010501F49076354367
:100FE0005DD0C20705D0CA0503D5E26B42F001020D
:100FF000E263420705D5DA0703D0E26B42F0020252
:10100000E263820705D5DA0703D0E26B42F00402FF
:10101000E263020705D5DA0703D0E26B42F008026B
:10102000E263E26B002A33D0800604D5880602D53D
:10103000204600F081FC20684069E16BC0F380101D
:10104000090700D428B3204600F068FC20684169F5
:1010500049061AD5416921F040014161606BA0B198
:101060001B494163606BFFF73BF9002810D0606BB0
:10107000416BBDE870400847830610D58B060ED53E
:101080002046BDE8704000F057BC2046FFF799FFAE
:1010900070BD2046FFF795FF0020E06370BD03069A
:1010A00006D50B0604D52046BDE8704000F048BDCB
:1010B0004006F3D54806F1D5D168204621F040011D
:1010C000D160202184F8391000F035F970BD00009E
:1010D0000D19000870B5040004D094F839000025FB
:1010E00010B106E0012070BD84F83850204600F0B1
:1010F00023F8242084F839002068C16821F40051C5
:10110000C160204600F064FC2068016921F4904130
:1011100001612068416921F02A0141612068C168AC
:1011200041F40051C160E563202084F8390084F85F
:101130003A00002070BD000070B5274E03680024FF
:10114000264902200322264D86B0B3421ED18B6968
:1011500043F480438B618969039201F480410491D7
:101160000102CDE9001069462846FFF763F928150A
:10117000CDE90004694628460294FFF75BF9002296
:1011800011462520FFF7E2FA252020E0154EB34254
:101190001FD1CB6943F40033CB61C969039201F4D9
:1011A000003104910421CDE9001069462846FFF77B
:1011B00041F90820CDE90004694628460294FFF76A
:1011C00039F9002211462620FFF7C0FA2620FFF742
:1011D000B1FA06B070BD00000038014000100240B6
:1011E000000801400044004090F83A30202B22D102
:1011F000F9B1F2B190F83830012B1CD081628285B0
:10120000C2850021C163222280F83A2080F838107C
:101210000168CA6842F48072CA6001684A6942F093
:1012200001024A610068C16841F02001C1600020EC
:1012300070470120704702207047000010B50D492B
:1012400000680968884213D1FFF7EEF90A49094A94
:101250004860488840320B7813547F2801D2401CE4
:101260004880BDE81040012203490248FFF7BCBF97
:1012700010BD0000BC000020000000202DE9F84354
:10128000044690F839001F4616460D46202850D1D6
:10129000A5B19EB194F8380001284AD0012084F805
:1012A00038004FF00008C4F83C80212084F8390051
:1012B000FFF7BAF9A6848146E68426E00120BDE85E
:1012C000F883E08C401EE084A0684B46B0F5805F58
:1012D0004FF000024FF080012046009703D000F04D
:1012E00060FCE8B90DE000F05CFCC8B92888216812
:1012F000C0F308004860206908B16D1C05E0AD1C12
:1013000003E0216815F8010B4860E08C0028D8D173
:101310004B46002240212046009700F042FC08B1D5
:101320000320CCE7202084F8390084F8388000209E
:10133000C5E70220C3E77047FEE710B5142000F0B0
:10134000B1F8800705D10321BDE81040142000F05A
:10135000CBB810BD7CB50446002529460D2000F011
:1013600059F9932020702020607001A82346009036
:10137000022219460C2000F0C3F8010009D1225CBA
:10138000401C5540C0B20428F9D3205CA84200D0CC
:10139000022108467CBD2DE9F0410E460746154660
:1013A0000421052000F036F880210A2000F09CF886
:1013B000002405E0395D092000F02CF9641CE4B23A
:1013C000B442F7D30321012000F024F9FF240520C3
:1013D00000F068F8641E14F0FF0401D04007F6D551
:1013E000222000F05FF82870212000F05BF8687080
:1013F000BDE8F08170B505460146262000F059F899
:10140000040003D12846FFF7A5FF044600F00EF8BC
:10141000204670BD70B50C46054600F043F820EA42
:1014200004012846BDE8704000F0F4B80EB5502025
:101430008DF8040000208DF805000DF10602022150
:1014400001A8FFF7A8FF02A801AB009004221946EB
:101450000C2000F055F80EBD10B501221103104804
:10146000FFF7DCF800F03CF88D212A2000F0D2F8DC
:101470003E212B2000F0CEF81E212D2000F0CAF8CE
:1014800000212C2000F0C6F84021152000F0C2F801
:101490003D21112000F0BEF8BDE81040FFF74DBF20
:1014A000000C01407E2101EA400040F0800000F085
:1014B00043B97CB50C46054607210D2000F0AAF87B
:1014C000257001A823460090012219460C2000F047
:1014D00017F818B9BDF80410102900D002207CBDFF
:1014E0000F21012000F096B870B50C460546FFF7B5
:1014F000D9FF40EA04012846BDE8704000F08AB8F0
:101500002DE9FF5F00270226DDF838A015468B463F
:101510008146B8460C2805D0B9F10E0F05D1122727
:10152000102001E077273020804647F0800102201C
:1015300000F070F880210420FFF76CFF80210A2062
:10154000FFF7D2FF0021012000F064F8002406E03C
:101550001BF80410092000F05DF8641CA4B2AC4232
:10156000F6D34946012000F055F8B9F10C0F03D12C
:1015700080210D20FFF7B8FF4FF4FA650420FFF734
:1015800091FF6D1E2D0404462D0C04D0E00702D1FE
:1015900014EA080FF2D080210D20FFF73BFF35B190
:1015A0000620FFF77FFF10F01B0F04D0022604B0C7
:1015B0003046BDE8F09F00263C40E00700D0012601
:1015C000B9F10C0FF3D10A20FFF76CFF04460C2091
:1015D000FFF768FF10F007004FEAC40104D0083994
:1015E0000844AAF8000001E0AAF8001024B1102C69
:1015F00004D91024002503E00124FBE7002506E0C0
:101600000920FFF74FFF039948556D1CADB2A54265
:10161000F6D3CCE77E2202EA400000F0A7B8000033
:101620002DE9F0411F4886B0816941F004018161D4
:10163000816901F004010491816941F01001816127
:10164000816901F010010491816941F00801816113
:101650008069154F00F008000490012230213846BF
:10166000FEF7DCFFDFF844804FF4E05600223146FD
:101670004046FEF7D3FF3020012402258DE83100DB
:101680000320039069463846FEF7D4FE00200096FA
:101690000395CDE9014069464046FEF7CBFE06B012
:1016A000BDE8F0810010024000100140000C014034
:1016B0000E4810B50C4901604FF482714160002161
:1016C0008160C1604FF400720161C0E90512082217
:1016D000C0E90721416281620A21C162FFF7F0FA85
:1016E000002800D0FEE710BD003800402400002094
:1016F000FEE770470907090E002806DA00F00F0020
:1017000000F1E02080F8141D704700F1E02080F81F
:1017100000147047704700000EB501238DF80400D7
:101720000A20009002AA01A90248FFF739FB9DF8A0
:1017300008000EBD2400002070B50B4E04464FF487
:101740008055002229463046FEF768FF2046FFF705
:10175000E3FF0020FFF7E0FF044601222946304660
:10176000FEF75CFF204670BD000C01402DE9F04102
:101770000B4D0F4606464FF4805400222146284662
:10178000FEF74CFF3046FFF7C7FF3846FFF7C4FFB0
:1017900021462846BDE8F0410122FEF73FBF000088
:1017A000000C014038B50B4600920446002280210F
:1017B00000F008F8002804D0606D40F0200060655B
:1017C000032038BD2DE9F0411D4617460E4604465C
:1017D000DDF8188035E0681C33D02DB1FEF724FF0A
:1017E000A0EB0800A8422CD32068416821F0E0015A
:1017F00041606068B0F5827F0BD1A068B0F5004F02
:1018000002D0B0F5806F04D12068016821F040015A
:101810000160A06AB0F5005F0AD1206801684DF64A
:10182000FF72114001602068016841F400510160BD
:10183000012084F85100002084F850000320BDE806
:10184000F0812068806836EA000004D00020B842A9
:10185000C1D10020F3E70120F9E7704710B5FEF78A
:10186000E9FEBDE81040FFF7A8BB10B590B002201C
:1018700000900120049010200024059007946846F1
:10188000FFF79CF800B1FEE70F20CDE90A040C94A5
:101890000D9400210AA80E94FEF78AFF00B1FEE71E
:1018A000FFF730F84FF47A71B0FBF1F0FFF771FBFE
:1018B0000420FFF761FB00221146501EFEF746FF91
:1018C00010B010BD0D48016841F001010160416890
:1018D0000B4A1140416001680A4A114001600168E9
:1018E00021F480210160416821F4FE0141604FF440
:1018F0001F0181600449C003086070470010024066
:101900000000FFF8FFFFF6FE08ED00E010B5406AAA
:101910000021C185C184FFF754FB10BD0168CA686E
:1019200022F49072CA6001684A6922F001024A6199
:10193000202180F83A10704710B590F83A1022290B
:1019400001D0022010BD8168B1F5805F11D001691E
:10195000002901681FD0496801F07F03816A4A1C91
:1019600082620B70C18D491E0904090CC18518D013
:101970002BE00269816A002A0268526805D0D2B25F
:101980000A80816A491C8162ECE7C2F308020A807E
:10199000816A891CF7E74A68816A4B1C83620A7076
:1019A000E0E70168CA6822F02002CA600168CA68DC
:1019B00022F48072CA6001684A6922F001024A6119
:1019C000202180F83A10FFF739FC002010BD0000FC
:1019D0002DE9F041044600680169E26821F44051B4
:1019E000114301612169A0680843616908432168C6
:1019F000CA6841F20C639A430243CA602068416995
:101A0000A26921F44071114341614C492068642569
:101A1000322688423CD1FEF78BFF00EBC00101EB80
:101A2000001061688900B0FBF1F7FEF781FF00EB61
:101A3000C00101EB00106168B0468900B0FBF1F015
:101A4000B0FBF5F06FF01801484307EB800106EB9F
:101A50000110B0FBF5F000F0F006FEF769FF00EBB7
:101A6000C00101EB001061688900B0FBF1F0B0FB30
:101A7000F5F006EB0016FEF75BFF00EBC00101EB93
:101A8000001061688900B0FBF1F7FEF751FF3BE001
:101A9000FEF73EFF00EBC00101EB0010616889001A
:101AA000B0FBF1F7FEF734FF00EBC00101EB0010D3
:101AB0006168B0468900B0FBF1F0B0FBF5F06FF063
:101AC0001801484307EB800106EB0110B0FBF5F06D
:101AD00000F0F006FEF71CFF00EBC00101EB001068
:101AE00061688900B0FBF1F0B0FBF5F006EB001681
:101AF000FEF70EFF00EBC00101EB001061688900EA
:101B0000B0FBF1F7FEF704FF00EBC00101EB0010A2
:101B100061688900B0FBF1F0B0FBF5F06FF01801DF
:101B2000484307EB800108EB0110B0FBF5F021689A
:101B300000F00F0030448860BDE8F08100380140BB
:101B400090F83910212901D0022070478168B1F541
:101B5000805F016A0BD04A1C0262026809785160FA
:101B6000C18C491E0904090CC1840ED017E00988F4
:101B70000268C1F30801516001690029016A02D0BD
:101B8000491C0162ECE7891CFBE70168CA6822F086
:101B90008002CA600068C16841F04001C160002055
:101BA00070472DE9F041984617460E460446069DBB
:101BB0001DE0681C1BD02DB1FEF736FDA0EB080020
:101BC000A84214D92068C16821F4D071C16020688E
:101BD000416921F001014161202084F8390084F835
:101BE0003A00002084F838000320BDE8F081206826
:101BF000006836EA000004D00020B842D9D00020A6
:101C0000F3E70120F9E700000148FFF7DBB9000026
:101C10007C0000200148FFF7D5B90000BC0000207F
:101C2000FEE700000FB4054B10B503A9044A029863
:101C300000F018F810BC5DF814FB0000C920000883
:101C40002000002002E008C8121F08C1002AFAD1B3
:101C500070477047002001E001C1121F002AFBD12C
:101C6000704700002DE9FF4F8DB00F460546002656
:101C700006E025280BD0DDE90F1290476D1C761C7D
:101C800028780028F5D111B03046BDE8F08F002447
:101C9000A246A1460122EC4900E0044315F8013FA9
:101CA000203B02FA03F00842F7D128782A2810D006
:101CB0006FF02F022878A0F13001092914D80AEB1F
:101CC0008A0102EB410144F0020400EB010A6D1CA1
:101CD000F0E701CF5FEA000A03D544F40054CAF1EB
:101CE000000A44F002046D1C28782E2817D115F83C
:101CF000010F44F004042A280ED06FF02F02287838
:101D0000A0F1300109290AD809EB890102EB410150
:101D100000EB01096D1CF2E757F8049B6D1C287855
:101D20006C280FD006DC4C2817D068280DD06A2804
:101D300014D104E0742810D07A280FD10DE044F4B7
:101D400000140AE044F4801401E044F4401469787B
:101D5000814202D104F580146D1C6D1C2A786E2A14
:101D60001FD00CDC632A31D004DC002A8BD0582A27
:101D700011D1A3E0642A68D0692A0CD165E0732AE6
:101D80002ED004DC6F2A73D0702A04D19BE0752A10
:101D90006FD0782A6ED01046DDE90F129047761C7E
:101DA00050E1C4F30250022806D0032809D00428C9
:101DB00001CF09D0066045E101CFF117C0E900610C
:101DC00040E101CF06803DE106703BE117F8040BCE
:101DD0008DF8000000208DF80100EB46012003E0A3
:101DE00057F804BB4FF0FF3061074FF0000102D4F9
:101DF0000DE008F10101884649450FDA8045F8DB1E
:101E00001BF808100029F4D108E008F10101884608
:101E10008142FADB1BF808100029F6D1DDE90F2317
:101E2000AAEB08008146214600F036F9304400EB69
:101E3000080604E0DDE90F121BF8010B9047B8F12A
:101E40000108F7D221464846F7E00A21C4F30253BD
:101E50004FF0000B0891022B04D001CFC117032BC8
:101E600009D00AE0FF1D27F00707F7E8020108E0A4
:101E700032E01FE020E000B2C117042B01D140B2D4
:101E8000C117031E71F1000307DA4FF0000CD0EB0D
:101E90000C006CEB01012D2302E0230504D52B235C
:101EA0008DF82430012303E0E30701D02023F7E776
:101EB000984658E00A2110E010210EE010204FF063
:101EC000000B08900CE010214FF0000B44F00404CC
:101ED0004FF00809089103E008214FF0000B08912A
:101EE000C4F30253022B04D001CF0021032B06D0F0
:101EF00006E0FF1D27F00707F7E8020103E080B2C4
:101F0000042B00D1C0B24FF0000823072BD5702A54
:101F100007D0DDF820C08CF0100C5CEA0B0C05D06B
:101F20000EE040238DF82430012308E050EA01033D
:101F300006D030238DF824308DF8252002239846D2
:101F4000DDF820C08CF0080C5CEA0B0C0BD150EAD9
:101F5000010301D1630706D530238DF824304FF0FB
:101F60000108A9F10109582A04D038A20B9208AA45
:101F70000A920BE03AA2F9E75B46089AFEF716F9D7
:101F80000B9B9B5C0A9A521E0A92137050EA010244
:101F9000F2D10A98ADEB000000F1200B600702D5EA
:101FA00024F4803401E04FF00109D94502DDA9EBAA
:101FB0000B0000E0002000EB0B0141440890AAEB6D
:101FC000010AE00306D4DDE90F232146504600F064
:101FD00063F806444FF0000908E009A911F8090068
:101FE000DDE90F12904709F10109761CC145F4DBC8
:101FF000E0030CD5DDE90F232146504600F04CF8F4
:10200000064404E0DDE90F1230209047761C089961
:10201000481E08900029F5DC08E00A980A99007823
:10202000491C0A91DDE90F129047761CBBF10001B3
:10203000ABF1010BF1DC21465046DDE90F2300F046
:1020400019F806446D1C1BE60928010030313233B3
:1020500034353637383961626364656600000000E4
:1020600030313233343536373839414243444546CE
:10207000000000002DE9F041044600251E461746E9
:10208000880404D405E039462020B0476D1C641E46
:10209000F9D52846BDE8F0812DE9F0410446002538
:1020A0001E469046C80301D5302700E0202788044B
:1020B00004D505E041463846B0476D1C641EF9D58D
:1020C0002846BDE8F081000013B56423012269466B
:1020D0000248FFF7D3F800981CBD0000BC000020A8
:1020E000FEF7B0FAFFF7C1FBFFF79AFA1A48194951
:1020F0004FF4E13500240160C0E901540C26C460AE
:10210000C0E904468461C461FEF7E4FF00B1FEE764
:10211000FFF7CEFA1048114940300160C0E9015480
:10212000C460C0E904468461C461FEF7D3FF00B116
:10213000FEE7094801220A494030FFF755F8FFF74A
:102140008BF94FF47A70FEF763F90D2105A0FEF7C5
:1021500081F8FAE7003801407C000020004400408C
:1021600000000020404465766963655F31310D0AE7
:1021700000000000F0B50024264612E00578175D47
:10218000BD4214D1002509E02F19465DD75DBE423E
:1021900002D00126641C04E000266D1C8D42F3DB96
:1021A0001EB19C42EADB0020F0BD0120F0BD0026FC
:1021B000F0E7000000000000000001020304060731
:1021C000080900000000010203040000EC210008DF
:1021D0000000002024000000441C00081022000819
:1021E000240000205C050000541C000800000000D2
:1021F00000000000000000000000000001000000DE
:10220000100000000000000000A24A0400000000CE
:0400000508000131BD
:00000001FF
