:020000040800F2
:10000000780700209D010008B71800085517000860
:10001000B5180008D5020008F9210008000000000A
:10002000000000000000000000000000E7180008C9
:100030002103000800000000E5180008E918000886
:10004000B7010008B7010008B7010008B7010008B0
:10005000B7010008B7010008B7010008B7010008A0
:10006000B7010008B7010008B7010008B701000890
:10007000B7010008B7010008B7010008B701000880
:10008000B7010008B7010008B7010008B701000870
:10009000B7010008B7010008B7010008B701000860
:1000A000B7010008B7010008B7010008B701000850
:1000B000B7010008B7010008B7010008B701000840
:1000C000B7010008B7010008B7010008B701000830
:1000D000B7010008B70100082D1E0008B70100088D
:1000E000B7010008B7010008B7010008B701000810
:1000F000B7010008B7010008B7010008B701000800
:10010000B7010008B7010008B7010008B7010008EF
:10011000B7010008B7010008B7010008B7010008DF
:10012000B7010008B7010008B7010008B7010008CF
:10013000B7010008B7010008B7010008B7010008BF
:10014000B7010008B7010008B7010008D918000876
:10015000B7010008B7010008B7010008B70100089F
:10016000B7010008B7010008B7010008B70100088F
:10017000B7010008B7010008B7010008000000003F
:10018000B7010008B7010008DFF80CD000F090F8C4
:100190000048004799250008780700200648804756
:1001A00006480047FEE7FEE7FEE7FEE7FEE7FEE75C
:1001B000FEE7FEE7FEE7FEE7AD190008890100084B
:1001C0002DE9F05F0546002092469B46884606468C
:1001D000814640241BE0284641464746224600F01F
:1001E00057F853465A46C01A914110D31146184643
:1001F000224600F03EF82D1A67EB01084F462246D2
:100200000120002100F035F817EB00094E41201EB7
:10021000A4F10104DFDC484631462A464346BDE8E6
:10022000F09FD2B201E000F8012B491EFBD27047CB
:100230000022F6E710B513460A4604461946FFF7B2
:10024000F0FF204610BD30B50B46014600202022AD
:10025000012409E021FA02F59D4205D303FA02F5D3
:10026000491B04FA02F52844151EA2F10102F1DC33
:1002700030BD202A04DB203A00FA02F1002070474A
:100280009140C2F1200320FA03F3194390407047D4
:10029000202A04DB203A21FA02F00021704721FADB
:1002A00002F3D040C2F12002914008431946704742
:1002B000064C074D06E0E06840F0010394E80700B3
:1002C00098471034AC42F6D3FFF762FF7C26000853
:1002D0009C260008FEE7000070B50B4CC9B20B4A23
:1002E000237902F09FF901280DD10025A5808021F6
:1002F0000648FFF79DFF0A2000F026F8618804A059
:1003000001F07CFF658070BD0000002060000020CF
:100310004572726F723D253032640D0A0000000094
:10032000704790F83510022903D0802141650120E3
:100330007047052180F835100068016821F001013F
:10034000016000207047000070B5044600F0F0F82E
:100350000546601C02D004480078044400F0E8F828
:10036000401BA042FAD370BD0C0000202DE9F84FCD
:10037000DFF87CB100224FF001084FF0030A4FF084
:100380000F090BF1040E00BF0B6808FA02F42340BA
:10039000A3426ED14D68022D01D0122D0ED1D50889
:1003A00000EB850CDCF820505607F70E09FA07F62B
:1003B000B5430E69BE402E43CCF820600668550058
:1003C0000F790AFA05FC07F0030726EA0C06AF408E
:1003D000374307604E68012E05D0022E03D0112E40
:1003E00001D0122E0ED18668CF6826EA0C06AF40E7
:1003F000374387604668A6430C79C4F300149440E1
:1004000034434460C6688C6826EA0C06AC4034432A
:10041000C4604C68E40065D5364C256845F48045D9
:100420002560246822F0030504F480440094324CD3
:100430002E19D6F8084895072F0F09FA07F5AC438F
:100440002E4DA84201D1002524E02D4DA84201D116
:1004500001251FE02B4DA84201D102251AE02A4DAB
:10046000A84201D1032515E0284DA84202D1042558
:1004700010E037E0264DA84201D105250AE0254DC0
:10048000A84201D1062505E0234DA84201D1072548
:1004900000E00825BD402543C6F80858DBF80040B9
:1004A0005D464E689C43F60300D51C432C60DEF885
:1004B000004075464E689C43B60300D51C432C6033
:1004C0000B4D08352C684E689C43F60200D51C4342
:1004D0002C60074D0C352C684E689C43B60200D545
:1004E0001C432C60521C102AFFF44EAFBDE8F88F5D
:1004F000003C01404438024000300140000002400E
:100500000004024000080240000C024000100240BB
:100510000014024000180240001C0240006908401C
:1005200000D0012070470AB1816170470904FBE7E0
:1005300001488068704700000C000020D0F8940249
:1005400001F086BCD0F8940201F096BC7047000020
:100550002DE9F041044600680025064601F016FD2D
:1005600001287DD1206801F0DAFD002878D02068CC
:1005700001F0D5FD800203D521684FF400104861D9
:10058000206801F0CCFDC00203D521684FF4801033
:100590004861206801F0C3FD400103D521684FF098
:1005A00080604861206801F0BAFD800702D52168AB
:1005B00002204861206801F0B2FD800010D5D6F815
:1005C000400420F02E00C6F840042046FFF7BAFF92
:1005D0000121206801F088FD21684FF0005048613A
:1005E000206801F09CFDC00102D5204601F024F8EE
:1005F000206801F094FD000705D5204600F03FF883
:10060000216808204861206801F089FD800120D51B
:10061000206801F063FD07464FF0010812E000BFBB
:1006200008FA05F038420CD006EB4510D0F800056A
:10063000E9B20004204602D500F0DAFD01E000F046
:10064000F0FE6D1CA068A842EAD821684FF0007047
:100650004861206801F063FDC0060ED5206800E007
:100660000BE0816921F010018161204601F03AF828
:100670002068816941F010018161BDE8F081D0F806
:10068000940201F015BC10B5044690F890020128C0
:100690000DD0012084F89002206801F04EFC012169
:1006A000206801F034FC002084F8900210BD022084
:1006B00010BD10B5044690F89002012809D0012021
:1006C00084F89002206801F03EFD002084F890023A
:1006D00010BD022010BD000002488168027811445C
:1006E000816070470C0000200B4810B5016841F490
:1006F00000710160016841F480610160016841F4AA
:1007000080710160032000F097F8002000F006F8E7
:1007100000F024F8002010BD003C024070B50D4DE3
:1007200004464FF47A712878B1FBF0F00A49096861
:10073000B1FBF0F000F0B9FB48B9102C07D2002251
:100740002146501E00F058F800206C6070BD01205A
:1007500070BD00000C000020180000201F4808B5E4
:10076000016841F480410160006800F4804000901D
:100770001A48001F016841F080510160006800F0D4
:1007800080500090072000F057F8002211466FF0CB
:100790000B0000F031F8002211466FF00A0000F063
:1007A0002BF8002211466FF0090000F025F8002216
:1007B0001146501F00F020F800221146101F00F0D3
:1007C0001BF800221146901E00F016F80022BDE82A
:1007D00008401146501E00F00FB800004438024097
:1007E00000F01F02012191404009800000F1E0204B
:1007F000C0F8001170470000F0B40E4B1B680C46A7
:10080000C3F30223C3F10705042D00D90425191DE4
:10081000072901D2002300E0DB1E012606FA05F1BC
:10082000491E214099409E40761E16403143F0BC3F
:1008300001F042B80CED00E0064900F0070208683C
:100840004FF6FF03184040EA0220034A10430860B5
:10085000704700000CED00E00000FA052DE9F843B8
:10086000054600684FF00109C1074FF0000601D1AD
:10087000400727D5DFF80C81C8F86860FFF758FEFD
:100880000746414C05E000BFFFF752FEC01B02289F
:1008900057D820680001F7D468688101287A41EAB6
:1008A0000070394984310860C8F86890FFF740FE4D
:1008B000074604E0FFF73CFEC01B022841D8206831
:1008C0000001F7D52878800752D52F4840300168BD
:1008D00041F08051016000682C4C00F08050009085
:1008E000206840F480702060FFF722FE074604E095
:1008F000FFF71EFEC01B022823D82068C005F7D5CD
:10090000214C7034206810F4407020D0A98901F483
:10091000407181421BD020681D4920F44070C1F80D
:1009200000900E6020602068C00710D0FFF700FE26
:10093000064641F2883707E0FFF7FAFD801BB84210
:1009400002D90320BDE8F88320688007F4D5E96860
:100950000D48C1F301220830032A0BD0016821F4AD
:10096000F81101602068A989C1F30B0108432060D8
:100970000020E7E70268074B22F4F81219400A4307
:100980000260EFE70000474200380240007000407C
:10099000400E4742FFFCFF0F2DE9F0470E460500D1
:1009A00065D0DFF81481D8F80000F7B200F00F002E
:1009B000B04207D288F80070D8F8000000F00F00AD
:1009C000B04254D128683D4C810712D5400703D569
:1009D000206840F4E05020602878000703D52068A4
:1009E00040F4604020602068A96820F0F0000843CF
:1009F00020602878C0072DD0304968680839012860
:100A000012D0022813D0032811D0096889070029C1
:100A10002DDA216821F0030101432160FFF788FDF1
:100A2000814641F2883A0EE009688903EFE70968D8
:100A30008901ECE7FFF77CFDA0EB0901514502D9E4
:100A40000320BDE8F0872068696800F00C00B0EB77
:100A5000810FEFD1D8F80010404601F00F01B142EC
:100A600007D90770006800F00F00B04201D00120E4
:100A7000E7E72878400705D52068E96820F4E050CA
:100A8000084320602878000706D52068296920F4EB
:100A9000604040EAC100206000F03CF82168084A4C
:100AA000C1F30311515CC840064908600020FFF7FC
:100AB00035FE0020C5E70000003C02400838024037
:100AC00062260008180000200148006870470000F6
:100AD000180000200448054900680968044AC1F369
:100AE0008221515CC840704718000020083802403D
:100AF000722600080448054900680968044AC1F3E1
:100B00004231515CC840704718000020083802404C
:100B100072260008154810B5006810F00C02144841
:100B200013D04110042A0FD0082A0ED10F4C241FD5
:100B30002268236802F03F025B0207D52068C0F3F9
:100B40008810A0FB010106E0084610BD2168C1F332
:100B50008811A1FB00010023FFF732FB2168C1F3DC
:100B60000141491C4900B0FBF1F010BD08380240BA
:100B70000024F4002DE9F84F050076D02878DFF83E
:100B8000F8B2BE4CC00749D0DBF800105846C1F39C
:100B90008101012908D00068C0F3810002280AD130
:100BA000201D0068400206D52068800336D568689D
:100BB0000028E2D032E06868B0F5803F10D0B0F590
:100BC000A02F206810D020F480302060206820F40E
:100BD000802020606868A0B1FFF7AAFC06460CE000
:100BE000206840F48030F4E740F480202060F7E78C
:100BF000FFF79EFC801B642873D820688003F7D51C
:100C00000CE0FFF795FC064605E000BFFFF790FCFF
:100C1000801B6428F0D820688003F7D42878DFF898
:100C2000608280074FF000093ED5DBF8001058467F
:100C300011F00C0F09D00068C0F3810002280BD11D
:100C40008D48001F0068400206D42068800715D533
:100C5000E868012809D111E0E868B8B10120C8F8B6
:100C60000000FFF765FC064605E002E1FFF760FCC7
:100C7000801B0228C0D820688007F7D52068296922
:100C800020F0F80040EAC10020600DE0C8F80090B4
:100C9000FFF74EFC064604E0FFF74AFC801B0228E3
:100CA0001FD820688007F7D42878000722D5724E15
:100CB000744869696C3671B101210160FFF738FC35
:100CC000074604E0FFF734FCC01B022809D830684F
:100CD0008007F7D50EE0C0F80090FFF729FC074623
:100CE00005E083E0FFF724FCC01B02287ED83068B3
:100CF0008007F7D42878400768D5DFF87CA1002763
:100D00000AF1380ADAF80000C0000BD4DAF8001053
:100D100041F08051CAF80010DAF80000012700F015
:100D200080500090584E3068C00510D4306840F4B0
:100D300080703060FFF7FCFB009005E0FFF7F8FBE8
:100D40000099401A022851D83068C005F6D54A4E9D
:100D5000A868683601280FD00528306810D020F028
:100D600001003060306820F004003060A868B8B13D
:100D7000FFF7DEFB00900FE0306840F00100F4E781
:100D800040F004003060F7E7FFF7D2FB0099411A0A
:100D900041F28830814264D830688007F4D50EE093
:100DA000FFF7C6FB009007E0FFF7C2FB0099411A6E
:100DB00041F28830814254D830688007F4D42FB192
:100DC000DAF8001021F08051CAF80010A869C0B309
:100DD000DBF80010C1F3810102294AD002284846FD
:100DE00007D0C8F86000FFF7A3FB00E039E0054634
:100DF0003AE04746C8F86000FFF79AFB064604E071
:100E0000FFF796FB801B02282BD820688001F7D4BF
:100E1000D5E907010843A96A1C4A490802EB0141C8
:100E20006A6A41EA8211084395F82C1040EA016190
:100E30001148001F016001203866FFF779FB054665
:100E400005E014E0FFF774FB401B022809D8206876
:100E50008001F7D50BE000BFFFF76AFB401B0228BB
:100E600002D90320BDE8F88F20688001F4D4002067
:100E7000F8E70120F6E70000083802400038024099
:100E800000004742800E4742007000400000FFFF14
:100E90004FF0E0210428086903D020F00400086125
:100EA000704740F00400FAE7704710B5401EB0F1FB
:100EB000807F01D3012010BD4FF0E02460610F213D
:100EC000601700F0F9FC0020A061072020610020DD
:100ED00010BD10B5FFF7E8FF10BD704770B5026890
:100EE00004461068D168536910F00F0F50D003F01A
:100EF000010501F4907635435DD0C20705D0CA05DF
:100F000003D5E26B42F00102E263420705D5DA073E
:100F100003D0E26B42F00202E263820705D5DA07F2
:100F200003D0E26B42F00402E263020705D5DA0760
:100F300003D0E26B42F00802E263E26B002A33D096
:100F4000800604D5880602D5204600F06FFD206893
:100F50004069E16BC0F38010090700D428B3204634
:100F600000F056FD2068416949061AD5416921F013
:100F700040014161606BA0B11B490165606BFFF7E7
:100F8000D0F9002810D0606B016DBDE870400847B3
:100F9000830610D58B060ED52046BDE8704000F0C4
:100FA00045BD2046FFF799FF70BD2046FFF795FF2E
:100FB0000020E06370BD030606D50B0604D520466D
:100FC000BDE8704000F0CEBE4006F3D54806F1D52E
:100FD000D168204621F04001D160202184F83910E9
:100FE00000F005F970BD0000011A000870B504009A
:100FF00004D094F83900002510B106E0012070BD3E
:1010000084F83850204600F023F8242084F8390072
:101010002068C16821F40051C160204600F04CFDF9
:101020002068016921F4904101612068416921F043
:101030002A0141612068C16841F40051C160E56343
:10104000202084F8390084F83A00002070BD0000A8
:1010500000B50068124987B088421ED11148016866
:1010600041F4003101600068694600F400300590E9
:101070000C20009002200190012002900320039098
:10108000072004900848FFF771F900221146262036
:10109000FFF7B2FB2620FFF7A3FB07B000BD00005F
:1010A00000440040403802400000024090F83A30CE
:1010B000202B1DD1D1B1CAB190F83830012B17D0F7
:1010C00081628285C2850021C163222280F83A2094
:1010D00080F8381001684A6942F001024A610068EC
:1010E000C16841F49071C1600020704701207047D1
:1010F0000220704710B50D4900680968884213D175
:10110000FFF716FA0A49094A8860888840320B7846
:1011100013547F2801D2401C8880BDE81040012272
:1011200003490248FFF7C2BF10BD000020000020A5
:10113000000000202DE9F843044690F839001F46CE
:1011400016460D46202850D1A5B19EB194F838001E
:1011500001284AD0012084F838004FF00008C4F874
:101160003C80212084F83900FFF7E2F9A68481460B
:10117000E68426E00120BDE8F883E08C401EE08490
:10118000A0684B46B0F5805F4FF000024FF0800141
:101190002046009703D000F016FEE8B90DE000F0FD
:1011A00012FEC8B928882168C0F308004860206989
:1011B00008B16D1C05E0AD1C03E0216815F8010BBA
:1011C0004860E08C0028D8D14B46002240212046C0
:1011D000009700F0F8FD08B10320CCE7202084F848
:1011E000390084F838800020C5E70220C3E7704743
:1011F0002DE9F05F06460068884600EB4814D4F8F5
:1012000008054FF0040B410708EB88004FF0050A72
:101210004FF0100706EBC00508D5C4F808B5D4F8A0
:101220000C0540F00200C4F80C0532E0D4F80805C3
:10123000800601D520202AE0D4F808054FF00809DF
:10124000000710D5D4F80C0540F00200C4F80C05D6
:1012500085F85DA0C4F80875C4F808954146306863
:1012600000F098FE15E0D4F80805400511D5D4F833
:101270000C0540F00200C4F80C054146306800F04F
:1012800089FEC4F8087585F85D904FF48060C4F855
:101290000805D4F8080580050ED5D4F80C0540F0F3
:1012A0000200C4F80C05414604F5A164306800F062
:1012B00071FE4FF400708DE0D4F808054FF0000186
:1012C000C0074FF0010236D0306930B1A86CD4F8B5
:1012D0001035C3F31203C01AE86485F85D20A965D0
:1012E000C4F8082595F83F0020B1022802D0032851
:1012F0000ED019E0D4F80C0540F00200C4F80C053B
:10130000414604F5A164306800F044FE27600BE01C
:10131000D4F8000540F00050C4F8000585F85C20C2
:1013200041463046FFF712F915F8500F80F00100E2
:101330002870BDE8F09FD4F80805800733D5D4F8AD
:101340000C0520F00200C4F80C0595F85D0002239E
:10135000012806D0052807D0062808D0082806D07E
:1013600018E085F85C2015E085F85CA012E0A86D17
:10137000421CAA65032803D9A96585F85CB001E081
:1013800085F85C30D4F8000520F0804040F0004043
:10139000C4F80005C4F8083595F85C20414630468D
:1013A000FFF7D4F8C5E7D4F80805000614D5D4F83B
:1013B0000C0540F00200C4F80C05A86D4146401C25
:1013C000A865062085F85D0004F5A164306800F08A
:1013D000E1FD80202060ACE7D4F80805C006A8D560
:1013E00095F83F00032809D1D4F80C0540F002001D
:1013F000C4F80C054146306800F0CCFD032085F8A8
:101400005D00C4F8087595F83F0008B1022890D136
:10141000D4F8000520F0804040F00040C4F80005FA
:1014200087E72DE9F047026802EB4114D4F808255C
:101430004FF0040C520709D5C4F808C5D4F80C05C0
:1014400040F00200C4F80C05BDE8F087D4F8082588
:1014500001EB810392064FF0020600EBC30514D5A1
:101460002022C4F8082595F83D20012AECD185F802
:101470005DC0D4F80C2542F00202C4F80C250068C7
:1014800000F088FD85F85C60DEE7D4F808254FF0B1
:10149000000352060FD585F85DC0AB65D4F80C2566
:1014A00042F00202C4F80C25006804F5A16400F0C3
:1014B00071FD402010E0D4F8082592050ED5D4F82F
:1014C0000C2542F00202C4F80C25006804F5A16462
:1014D00000F060FD4FF400702060B5E7D4F80825F7
:1014E0004FF00108D20710D0AB65D4F80C2542F0BC
:1014F0000202C4F80C25006804F5A16400F04AFD5E
:10150000C4F8008085F85D809EE7D4F808254FF088
:10151000080912074FF0050A0DD5C4F80895D4F84C
:101520000C2542F00202C4F80C25006800F032FDE0
:1015300085F85DA088E7D4F808254FF01007D2069B
:1015400010D5AB65D4F80C2542F00202C4F80C2586
:10155000006804F5A16400F01DFD032085F85D001E
:10156000276071E7D4F8082512060FD5D4F80C25AA
:1015700042F00202C4F80C25006804F5A16400F0F2
:1015800009FD062085F85D008020A5E7D4F8082530
:10159000520511D5D4F80C2542F00202C4F80C25EE
:1015A000006804F5A16400F0F5FC27604FF480604A
:1015B000206085F85D9047E7D4F8082592078CD520
:1015C000D4F80C2522F00202C4F80C2595F85D2011
:1015D000012A0AD0032A26D0042A13D0052A16D0BD
:1015E000062A17D0082A15D01FE085F85C8095F8E8
:1015F0003F20022A19D195F8512082F0010285F886
:10160000512012E085F85C6085F83D300DE085F8EA
:101610005CA00AE0AA6D571CAF65032A03D9AB652D
:1016200085F85CC001E085F85C60C4F8086595F851
:101630005C20FEF78BFF07E77CB504680546D4F80D
:1016400040040190D4F8400420F02E00009001984E
:1016500080070DD50198C00706D0A06920F0005181
:10166000A1612846FEF76AFF009840F00200009052
:10167000019800072CD5009840F0080000900198D0
:1016800040071AD5A869022803D0E86803280CD0BF
:101690000FE00198C0F341400228286803D00121DF
:1016A00000F022FD05E00221FAE74EF66020C4F8C2
:1016B00004042846FEF742FF0AE0D4F8400420F074
:1016C0002E00C4F840042868816941F0005181610E
:1016D00001988006009802D540F020000090C4F8E0
:1016E00040047CBD2DE9F041024600680646016ACF
:1016F000C1F3434301F00F07C1F30A14022B25D1B4
:10170000002C23D007EB870102EBC105696C00298F
:101710001CD0224600F007FD686C20446864E86C29
:101720002044E86406EB4710D0F81015084A11422F
:101730000CD0D0F8001521F0804141F00041C0F8F4
:10174000001515F8500F80F001002870BDE8F081F9
:101750000000F81FFEE700002DE9F04F4E4887B06B
:101760000024016841F010010160016801F01001DE
:101770000591016841F004010160016801F0040174
:101780000591016841F080010160016801F080016C
:101790000591016841F001010160016801F001015A
:1017A0000591016841F002010160016801F0020148
:1017B0000591016841F0080101600068002200F015
:1017C0000800059008213548FEF7ADFEDFF8D0800F
:1017D000012211464046FEF7A6FEDFF8C8B04FF2E0
:1017E0001009002249465846FEF79DFE08260125AD
:1017F0000096CDE90154694628480394FEF7B6FDEA
:101800000095CDE90154694640460394FEF7AEFDCC
:1018100000960226CDE901640527CDE90347694614
:101820004046FEF7A3FDDFF880800095CDE90184F6
:1018300069461E48FEF79AFD0420CDE90004DFF852
:1018400070A0694650460294FEF790FDA8020090F1
:10185000CDE90164CDE9034769465046FEF786FDB0
:10186000CDF80090CDE90154694658460394FEF73F
:101870007DFD2020CDE90004694658460294FEF71C
:1018800075FD0096CDE9018469460448FEF76EFDBA
:1018900007B0BDE8F08F0000303802400010024071
:1018A00000080240000C024000001210000002403C
:1018B00000040240FEE770470907090E002806DA17
:1018C00000F00F0000F1E02080F8141D704700F1D7
:1018D000E02080F8001470470148FEF739BE000090
:1018E000E00000207047704710B5FEF7F5FEBDE838
:1018F0001040FFF7EEBA000070B52A4896B00025F8
:10190000016841F080510160006800F0805015903E
:101910002548016841F4804101600068012600F417
:10192000804015903004CDE9006002248001CDE9AB
:101930000640082008904FF4A870CDE9090407205C
:101940000B906846FFF716F900B1FEE70CA90F20CF
:1019500081E831004FF4A0500F904FF48050109068
:1019600005210CA8FFF718F800B1FEE7C020CDE96B
:101970001204119611A8FEF771FF00B1FEE7FFF700
:10198000A3F84FF47A71B0FBF1F0FFF78EFA042060
:10199000FFF77EFA00221146501EFEF72DFF16B00B
:1019A00070BD0000403802400070004010480168DF
:1019B00041F4700101600F48016841F001010160CC
:1019C0000C4A00210832116002680B4B1A40026079
:1019D000031D0A4A1A60026822F480220260054848
:1019E0000C300160024958068039086070470000D9
:1019F00088ED00E000380240FFFFF6FE10300024C2
:101A000010B5806B0021C185C184FFF766FA10BD57
:101A10000168CA6822F49072CA6001684A6922F0BB
:101A200001024A61202180F83A10704710B590F801
:101A30003A10222901D0022010BD8168B1F5805FE3
:101A400011D00169002901681FD0496801F07F03A6
:101A5000816A4A1C82620B70C18D491E0904090CFF
:101A6000C18518D026E00269816A002A026852689E
:101A700005D0D2B20A80816A491C8162ECE7C2F3C8
:101A800008020A80816A891CF7E74A68816A4B1C50
:101A900083620A70E0E70168CA6822F49072CA6043
:101AA00001684A6922F001024A61202180F83A1057
:101AB000FFF720FB002010BD2DE9F041044600682F
:101AC000016921F44052E168114301612168C8684D
:101AD00049F20C6290432369A268E5691A4363697D
:101AE0002B431A430243CA602168486920F44072BC
:101AF000A06910434861E1696425B1F5004F97483A
:101B0000974A21684FF032083FD0914201D081427C
:101B10007CD1FEF7EFFF00EBC00101EB0010616824
:101B20008900B0FBF1F6FEF7E5FF00EBC00101EB29
:101B3000001061688900B0FBF1F0B0FBF5F06FF0C8
:101B40001801484306EB800108EB0110B0FBF5F0EB
:101B500000F0F006FEF7CEFF00EBC00101EB001035
:101B600061688900B0FBF1F0B0FBF5F006EB001600
:101B7000FEF7C0FF00EBC00101EB001061688900B7
:101B8000B0FBF1F7FEF7B6FFD2E0914201D08142FF
:101B90003DD1FEF7AFFF00EBC00101EB0010616823
:101BA0004900B0FBF1F0B0FBF5F00601FEF7A2FF33
:101BB00000EBC00101EB001061684900B0FBF1F7D8
:101BC000FEF798FF00EBC00101EB001061684900CF
:101BD000B0FBF1F0B0FBF5F06FF01801484307EBF4
:101BE000800108EBC100B0FBF5F000F0F80006EB57
:101BF0004006FEF77FFF00EBC00101EB00106168BB
:101C00004900B0FBF1F7FEF775FF3CE055E0FEF749
:101C100061FF00EBC00101EB001061684900B0FBFF
:101C2000F1F0B0FBF5F00601FEF754FF00EBC00148
:101C300001EB001061684900B0FBF1F7FEF74AFFC5
:101C400000EBC00101EB001061684900B0FBF1F04E
:101C5000B0FBF5F06FF01801484307EB800108EB8B
:101C6000C100B0FBF5F000F0F80006EB4006FEF70F
:101C700031FF00EBC00101EB001061684900B0FBCF
:101C8000F1F7FEF727FF00EBC00101EB00106168E0
:101C90004900B0FBF1F0B0FBF5F06FF018014843DC
:101CA00007EB800108EBC100B0FBF5F000F0070086
:101CB000216830448860BDE8F081FEF70BFF00EB3F
:101CC000C00101EB001061688900B0FBF1F6FEF77E
:101CD00001FF00EBC00101EB001061688900B0FB5F
:101CE000F1F0B0FBF5F06FF01801484306EB80010E
:101CF00008EB0110B0FBF5F000F0F006FEF7EAFE8D
:101D000000EBC00101EB001061688900B0FBF1F04D
:101D1000B0FBF5F006EB0016FEF7DCFE00EBC001B1
:101D200001EB001061688900B0FBF1F7FEF7D2FE0D
:101D300000EBC00101EB001061688900B0FBF1F01D
:101D4000B0FBF5F06FF01801484307EB800108EB9A
:101D50000110B0FBF5F000F00F00A9E700140140FE
:101D60000010014090F83910212901D0022070475D
:101D70008168B1F5805F016A0BD04A1C026202687B
:101D800009785160C18C491E0904090CC1840ED028
:101D900017E009880268C1F3080151600169002950
:101DA000016A02D0491C0162ECE7891CFBE701686B
:101DB000CA6822F08002CA600068C16841F0400130
:101DC000C160002070472DE9F041984617460E4645
:101DD0000446069D1DE0681C1BD02DB1FEF7A8FB34
:101DE000A0EB0800A84214D92068C16821F4D07182
:101DF000C1602068416921F001014161202084F81F
:101E0000390084F83A00002084F838000320BDE847
:101E1000F0812068006836EA000004D00020B84253
:101E2000D9D00020F3E70120F9E700000148FFF7CF
:101E300055B80000200000200B2907D200EB8100DC
:101E4000B0F87C13C1F30E01C0F87C13002070477A
:101E500010B5017819B10178012909D00AE00121F2
:101E600080F81E13D0F8C42322B10421904701E06A
:101E700002210170002010BD10B5044600F037F8B3
:101E800021792046FFF7D8FF61792046FFF7D4FF7C
:101E9000002084F81E03D4F8C42312B10521204683
:101EA0009047204600F013F803202070002010BD5A
:101EB000D0F8B813491CC0F8B81301780A2905D125
:101EC000D0F87413002901D089690847704710B50C
:101ED0000024D0F8C003FEF7D6FB30B1012801D0B2
:101EE000022801D0022400E00124204610BD10B5D4
:101EF0000024D0F8C003FEF7DCFB30B1012801D08C
:101F0000022801D0022400E00124204610BD08B5BB
:101F1000D0F8402422F02E020092D20405D40129E8
:101F200009D1009941F4805103E021B9009921F4CD
:101F30008051C0F84014002008BD816841F00101C3
:101F40008160002070470000002110220261054AD4
:101F5000491C914201D9032070470369DB06F7D47D
:101F600000207047400D03000022202343EA811126
:101F700001610549521C8A4201D903207047036957
:101F80009B06F7D400207047400D0300406900F025
:101F90000100704710B50246002302F5A06000EB77
:101FA00041100068C0F3814040B102F5A06000EB31
:101FB00041100068C0F38140022846D102F5A060BC
:101FC00000EB4110006840F0804402F5A06000EB97
:101FD00041100460D06A00F47F0048BB02F5A060A5
:101FE00000EB4110006820F0004402F5A06000EB17
:101FF0004110046002F5A06000EB4110006840F061
:10200000004402F5A06000EB4110046000BF581CC2
:102010000346B0F57A7F00D909E002F5A06000EB35
:102020004110006800F00040B0F1004FEFD053E0E5
:1020300002F5A06000EB4110006840F0004402F59A
:10204000A06000EB4110046046E002F5A06000EBE8
:102050004110006840F0804402F5A06000EB4110A0
:1020600004604FF48260805880B248BB02F5A060E3
:1020700000EB4110006820F0004402F5A06000EB86
:102080004110046002F5A06000EB4110006840F0D0
:10209000004402F5A06000EB4110046000BF581C32
:1020A0000346B0F57A7F00D909E002F5A06000EBA5
:1020B0004110006800F00040B0F1004FEFD00BE09D
:1020C00002F5A06000EB4110006840F0004402F50A
:1020D000A06000EB41100460002010BD014640F2FA
:1020E0001440405880B27047D0F8002422F0030218
:1020F000C0F80024D0F8002401F003031A43C0F80C
:102100000024012902D0022903D006E04BF68031D9
:1021100001E041F27071C0F8041400207047416979
:1021200080690840704710B503460020D21C920811
:1021300003F5805303E01C6841F8044B401C9042B7
:10214000F9D3084610BDF0B505460027A86820F071
:102150000100A86010212846FFF706FF2846FFF778
:10216000F3FE002411E005F5A06000EB44100668C2
:1021700046F0804626F0004626F4004605F5A060AD
:1021800000EB44100660601CC4B20F2CEBDD002491
:1021900023E005F5A06000EB4410066846F0804699
:1021A00046F0004626F4004605F5A06000EB44101A
:1021B000066000BF781C0746B0F57A7F00D909E0B9
:1021C00005F5A06000EB4410006800F00040B0F19D
:1021D000004FEFD000BF601CC4B20F2CD9DD4FF010
:1021E000FF3140F21440415108466861A86840F050
:1021F0000100A8600020F0BDFEE700000FB4054B11
:1022000010B503A9044A029800F018F810BC5DF854
:1022100014FB0000812500081C00002002E008C813
:10222000121F08C1002AFAD170477047002001E050
:1022300001C1121F002AFBD1704700002DE9FF4F9A
:102240008BB088460546002606E025280BD0DDE940
:102250000D1290476D1C761C28780028F5D10FB020
:102260003046BDE8F08F0024A146A2460122AE49C7
:1022700000E0044315F8013F203B02FA03F0084256
:10228000F7D128782A2810D06FF02F022878A0F1F3
:102290003001092915D809EB890102EB410144F00D
:1022A000020400EB01096D1CF0E758F8041B5FEA1B
:1022B000010903D544F40054C9F1000944F00204B3
:1022C0006D1C28782E2817D115F8010F44F004044E
:1022D0002A280ED06FF02F022878A0F130010929AA
:1022E0000AD80AEB8A0102EB410100EB010A6D1CDE
:1022F000F2E758F804AB6D1C28786C280FD006DC88
:102300004C2817D068280DD06A2814D104E074280E
:1023100010D07A280FD10DE044F400140AE044F400
:10232000801401E044F440146978814202D104F53C
:1023300080146D1C6D1C2878692865D006DC002887
:102340008DD0632827D0642806D15DE06E2808D0A0
:1023500073282AD0752877D0DDE90D129047761CB6
:10236000E0E0C4F30250022809D003280DD0D8F8C9
:10237000001004280DD00E6008F10408D2E0D8F84F
:102380000010F217C1E90062F6E7D8F800100E80DD
:10239000F2E70E70F0E718F8041B8DF8001000202B
:1023A0008DF80100EB46012003E058F804BB4FF024
:1023B000FF3061074FF0000701D40AE07F1C57454A
:1023C0000DDA8742FADB1BF807100029F6D106E088
:1023D0007F1C8742FCDB1BF807100029F8D1DDE9E0
:1023E0000D23A9EB07008146214600F0B1F83044E7
:1023F000C61904E0DDE90D121BF8010B90477F1EA2
:10240000F8D22146484688E058F8040BC4F302513C
:102410004FF00A0B032900D100B2042900D140B2C9
:10242000002802DA40422D2102E0210505D52B21AA
:102430008DF82410012104E006E0E10710D02021EE
:10244000F6E708AF089113E058F8040BC4F3025103
:102450004FF00A0B032900D180B2042900D1C0B289
:102460000021EEE75946FDF7EEFE303107F8011D79
:102470000028F7D1ADEB070000F1200B600702D573
:1024800024F4803401E04FF0010ADA4502DDAAEBC2
:102490000B0000E00020824600EB0B01089801448D
:1024A000A9EB01000A90E00306D4DDE90D232146E3
:1024B0000A9800F04DF806444FF0000908E009A919
:1024C00011F80900DDE90D12904709F10109761CA8
:1024D00008998945F3DBE0030CD5DDE90D2321469E
:1024E0000A9800F035F8064404E0DDE90D123020CA
:1024F0009047761CBAF10001AAF1010AF5DC05E06B
:10250000DDE90D1217F8010B9047761CBBF10001B5
:10251000ABF1010BF4DC0A982146DDE90D2300F054
:1025200005F806446D1C97E6092801002DE9F041E5
:10253000044600251E461746880404D405E03946A3
:102540002020B0476D1C641EF9D52846BDE8F081F7
:102550002DE9F041044600251E469046C80301D5EA
:10256000302700E02027880404D505E0414638469E
:10257000B0476D1C641EF9D52846BDE8F081000007
:1025800013B56423012269460248FEF7D3FD009883
:102590001CBD000020000020FEF7A6F8FFF7ACF9F4
:1025A000FFF7DAF8184817490C2201604FF4E131BF
:1025B000416000218160C160C0E904128161C16194
:1025C000FEF714FD00B1FEE7012210490E48FEF7A8
:1025D0006DFD0F4D0D4C0D210EA0FDF77DFE01216F
:1025E0002846FDF79BFF0128F5D101212846FDF77C
:1025F00095FF0128F9D00A20FDF7A6FE6088401C4F
:102600006080E8E700440040200000200000002037
:1026100000000240404465766963655F32320D0A0E
:1026200000000000F0B50024264612E00578175D92
:10263000BD4214D1002509E02F19465DD75DBE4289
:1026400002D00126641C04E000266D1C8D42F3DBE1
:102650001EB19C42EADB0020F0BD0120F0BD002647
:10266000F0E700000000000000000102030406077C
:102670000809000000000102030400009C26000875
:1026800000000020200000001C220008BC260008DA
:1026900020000020580700002C2200080000000045
:1026A0000000000000000000010000001000000019
:0C26B000000000000024F4000000000006
:040000050800018965
:00000001FF
